:020000040800F2
:10000000A84D002099010008A1010008A3010008E3
:10001000A5010008A7010008A901000800000000D0
:1000200000000000000000000000000001010008C6
:10003000AD01000800000000450100085D1900083E
:10004000B3010008B3010008B3010008B3010008C0
:10005000B3010008B3010008B3010008B3010008B0
:10006000B3010008B3010008B3010008B3010008A0
:10007000B3010008B3010008B3010008B301000890
:10008000B3010008B3010008B3010008B301000880
:10009000B3010008B3010008B3010008B301000870
:1000A000B3010008E51A0008B3010008B301000815
:1000B000051B0008B3010008F91B0008B301000884
:1000C000B3010008B3010008B3010008B301000840
:1000D000B301000861280008D5280008B301000812
:1000E000B3010008B3010008B3010008DFF80CD029
:1000F00000F08AFB00480047B15F0008A84D0020CF
:10010000224B19680868B0E8F00F80F30988BFF344
:100110006F8F4FF0000080F311884EF00D0E704786
:100120000000000006480068006880F3088862B696
:1001300061B6BFF34F8FBFF36F8F00DF00BF00BF0B
:1001400008ED00E0EFF30980BFF36F8F0F4B1A68E3
:1001500020E9F00F106008B54FF0BF0080F3118860
:10016000BFF34F8FBFF36F8F07F0A6F84FF000007B
:1001700080F31188BDE8084019680868B0E8F00FFE
:1001800080F30988BFF36F8F704700BFB400002071
:10019000EFF3058070470000064880470648004797
:1001A000FEE7FEE7FEE7FEE7FEE7FEE7FEE7FEE727
:1001B000FEE7FEE791190008ED00000840EA0103A0
:1001C0009B0703D009E008C9121F08C0042AFAD20D
:1001D00003E011F8013B00F8013B521EF9D27047D1
:1001E000D2B201E000F8012B491EFBD27047002279
:1001F000F6E710B513460A4604461946FFF7F0FF26
:10020000204610BDF0B480EA0102D40F4200B2EBE8
:10021000410F02D20246084611464A0042D0C30DA1
:10022000DDB2C1F3C752AD1A202D35DAC1F3160184
:1002300041F4000204B15242C5F1200602FA06F16F
:100240002A411044B3EBD05F23D0C4B1012DA0EB01
:10025000C35009DCF0BC4FF0004202EAC352DBB2EB
:1002600000F5000000F0EAB8400000F1807000EBFB
:10027000C350A0F1807040EAD170490009E04908FC
:1002800041EAC071A0EBC35000F50000400800EB4C
:10029000C350F0BC00F0C9B86142012202EB410139
:1002A000001BF6E7F0BC704781F00041AAE780F040
:1002B0000040A7E730B480EA010202F0004530F0C8
:1002C000004221F0004013D090B1C30DD40DC2F311
:1002D0001601C0F31600E41A41F4000140F40002D4
:1002E0007D34914201D3641C00E04900002C02DA05
:1002F00030BC002070474FF400000023914201D32E
:10030000891A034340084FEA4101F7D151B19142A4
:1003100002D14FF0004105E002D24FF0010101E0AF
:100320006FF0010103EBC450284430BC00F07DB8ED
:1003300096230022114600F081B820F00040C10D44
:10034000C0F3160040F400007F2901DA0020704756
:10035000962903DCC1F19601C84070479639884060
:10036000704700F0004230F000400AD0C10D01F5A6
:100370006071C0F3160042EA0151C2084007114300
:100380007047002001467047002801DBC0F10040A3
:10039000002901DBC1F100418142704730B50B46B5
:1003A000014600202022012409E021FA02F59D42A5
:1003B00005D303FA02F5491B04FA02F52844151E79
:1003C000A2F10102F1DC30BD2DE9F05F054600200D
:1003D00092469B4688460646814640241BE02846B6
:1003E00041464746224600F030FA53465A46C01A64
:1003F000914110D311461846224600F017FA2D1AE3
:1004000067EB01084F4622460120002100F00EFA5A
:1004100017EB00094E41201EA4F10104DFDC484621
:1004200031462A464346BDE8F09F0029A8BF7047E1
:10043000401C490008BF20F00100704710B4B0FA1A
:1004400080FC00FA0CF050EA010404BF10BC7047B5
:1004500049B1CCF1200421FA04F411FA0CF118BFCF
:10046000012121430843A3EB0C01CB1D4FEA00619E
:100470004FEA102042BF002010BC704700EBC35071
:1004800010440029A4BF10BC7047401C490008BF9D
:1004900020F0010010BC70472DE9FE4F804681EA34
:1004A0000300C00F0C46009021F0004123F00045EE
:1004B000B8EB0200A94105D24046214690461C46B1
:1004C0000B46024623F00040104347D0270DC7F3E8
:1004D0000A00C3F30A510290401A019040286BDAD7
:1004E000C3F3130040F4801B0098924620B1002310
:1004F000D2EB030A63EB0B0B01985946C0F14002A3
:10050000504600F093F906460D4650465946019A6A
:1005100000F0ABF910EB08006141002487EA1152AA
:1005200084EAE7731A4340D0009A62B3019A012A21
:100530004FEA075215DC001B61EB02014FF000424D
:1005400002EA0752CDE90042001C41F58011324613
:100550002B4600F0ABF903B0BDE8F08F40462146D2
:10056000F9E7001B61EB0201001C41F58013001844
:100570005B412018A2F5001747EB030140EAD57054
:10058000B6196D4111E06D084FEA360645EAC075AF
:100590004FEA0752001B61EB0201001C41F580117C
:1005A00049084FEA30000019514132462B4603B04A
:1005B000BDE8F04F00F06BB9009801224000002325
:1005C000D0EB020263EBE073009821464FEAE0743F
:1005D000B8EB000061EB0401E9E783F000435BE75F
:1005E00081F0004158E72DE9FE4F81EA030404F051
:1005F000004421F0004100944FF0000B23F0004331
:1006000050EA01045ED052EA03045BD0C3F30A54FB
:10061000C1F30A552C44A4F2F3340194A0FB025414
:10062000C1F3130141F48011C3F3130343F48013A6
:1006300001FB024400FB034E840A970A44EA8154FA
:1006400047EA8357A4FB076802958D0A05FB0785D7
:100650004FEA932C04FB0C542705029D4FEA0658E1
:1006600047EA1637B5EB08056EEB070C870E920EBE
:1006700047EA811742EA8312A7FB0201B6EB0B019E
:1006800064EB00042B0D43EA0C335E1844EB1C5062
:10069000DA465146E7FB0201C5F313044FEA0B3378
:1006A00043EA14534FEA0432019C43EA0603A4F1DF
:1006B0000C040294009CCDE900B400F0F7F803B0FC
:1006C000BDE8F08F00200146F9E72DE9F04D81EA01
:1006D000030404F0004B21F0004514464FF0000ADB
:1006E00023F0004150EA050220D054EA01021DD057
:1006F000C5F30A570246C5F31303C1F31300C1F350
:100700000A5640F4801543F48013A7EB0608101B2B
:10071000D64608F2FD3873EB050002D308F1010854
:1007200001E092185B41B8F1000F03DA00200146A6
:10073000BDE8F08D00204FF48011064684460EE09F
:10074000171B73EB050705D3121B63EB0503064369
:100750004CEA010C49084FEA300092185B4150EA1C
:100760000107EDD152EA030012D082EA040083EAC5
:100770000501084305D0101BAB4106D2012200231E
:1007800006E000224FF0004302E06FF00102531038
:100790001AEB06004CEB085110EB0A0041EB0B0181
:1007A000BDE8F04D00F073B8C1F30A52C1F3130174
:1007B00040F2FF3341F480119A4202DA00200146F0
:1007C000704740F233439A42A2F2334202DC524273
:1007D00000F03BB800F02AB830B5041E71F10004F7
:1007E00004DB4FF00044404264EB0101141E73F13E
:1007F000000405DB1C464FF00043524263EB040348
:10080000994208BF904230BD064C074D06E0E068B3
:1008100040F0010394E8070098471034AC42F6D347
:10082000FFF768FC2C9300084C930008202A04DB97
:10083000203A00FA02F1002070479140C2F12003F3
:1008400020FA03F3194390407047202A04DB203A32
:1008500021FA02F00021704721FA02F3D040C2F1E0
:1008600020029140084319467047202A06DBCB1727
:10087000203A41FA02F043EAE07306E041FA02F35B
:10088000D040C2F12002914008431946704710B58C
:10089000141E73F1000408DA401C41F100019218A3
:1008A0005B411A4301D120F0010010BD2DE9F04D4C
:1008B00092469B4611B1B1FA81F202E0B0FA80F2A1
:1008C00020329046FFF7B2FF04460F4640EA0A0086
:1008D00041EA0B0153465A46084313D0114653EAE6
:1008E000010019D0C8F140025046FFF7AEFF05469F
:1008F0000E46504659464246FFF798FF084305D03A
:10090000012004E020463946BDE8F08D0020054373
:1009100046EAE0762C4337430A986305E40AA0EBE5
:1009200008000022FD0A44EA47540A3002D500209C
:100930000146E9E7010510196941DDE9084500199B
:100940006941BDE8F04DA2E708B50121082000F09B
:1009500057FC0020009014208DF803000820ADF80B
:10096000000003208DF8020069460A4800F092F862
:100970000121084600F044FC0121074800F016F967
:100980000821044800F06EF94FF47A7002F0E1FE9D
:1009900008BD0000000C0140000230002DE9F041CC
:1009A0000821384800F05CF9142002F0D2FE08213A
:1009B000344800F057F9002509E0681CC5B205204D
:1009C00002F0D3FE142D02DB0120BDE8F0810821E6
:1009D0002C4800F033F90028EFD100BF0821294846
:1009E00000F02CF90028F9D000BF0821254800F0BC
:1009F00025F90028F9D1002400261AE0640000BF80
:100A00000821204800F01AF90028F9D0232002F02C
:100A1000ACFE08211B4800F011F908B144F00104B4
:100A200000BF0821174800F009F90028F9D1701C0F
:100A3000C6B2202EE2DBC4F30740FFF779FC804604
:100A40001149FFF737FC0646200EFFF771FC0746F9
:100A50003146FFF7D7FB0D490860E0B2FFF768FCAD
:100A600080460949FFF726FC0646C4F30720FFF736
:100A70005FFC07463146FFF7C5FB054908600020CB
:100A8000A3E70000000C01400000204144000020CA
:100A9000400000202DE9F0410246002500260020FC
:100AA00000230024002791F803C00CF00F0591F8F3
:100AB00003C00CF0100CBCF1000F03D091F802C081
:100AC0004CEA050591F800C0BCF1000F31D0146864
:100AD00000202BE04FF0010C0CFA00F3B1F800C03D
:100AE0000CEA03069E4220D183004FF00F0C0CFA53
:100AF00003F7BC4305FA03FC4CEA040491F803C075
:100B0000BCF1280F06D14FF0010C0CFA00FCC2F822
:100B100014C00AE091F803C0BCF1480F05D14FF0B2
:100B2000010C0CFA00FCC2F810C0401C0828D1D3FC
:100B30001460B1F800C0BCF1FF0F34DD5468002030
:100B40002EE000F1080C4FF0010808FA0CF3B1F8A0
:100B500000C00CEA03069E4221D183004FF00F0C27
:100B60000CFA03F7BC4305FA03FC4CEA040491F8C1
:100B700003C0BCF1280F05D100F1080C08FA0CF8ED
:100B8000C2F8148091F803C0BCF1480F07D100F1FE
:100B9000080C4FF0010808FA0CF8C2F81080401C4D
:100BA0000828CED35460BDE8F0810000F0B50A46B5
:100BB000002300240021002500F00046B6F1004F7C
:100BC00002D11D4EF16901E01B4E7168C0F303456F
:100BD00083B200F44016B6F5401F08D121F07061D1
:100BE000154E766826F07066134F7E6012E000F4B2
:100BF0008016B6F5801F06D1032606FA05F4A14338
:100C000041F0706106E0460D360103FA06F6B14385
:100C100041F0706122B1460D360103FA06F6314308
:100C200000F00046B6F1004F02D1034EF16101E041
:100C3000014E7160F0BD000000000140024600203E
:100C400093680B400BB1012000E000207047024682
:100C50000020D3680B400BB1012000E0002070475A
:100C6000416170470161704710B500F0C1FE01F0AD
:100C7000DFFF1D210248FFF7BAFA04F0D1FF10BDD3
:100C8000EA01002008B50121042000F0B9FA012191
:100C9000082000F0B5FA0020009028208DF803000D
:100CA00040F20110ADF8000003208DF80200694603
:100CB0000848FFF7EFFE48208DF803004FF48060EE
:100CC000ADF8000003208DF8020069460248FFF7E6
:100CD000E1FE08BD00080140000C014008B50121FB
:100CE000042000F08DFA0121082000F089FA00208C
:100CF000009010208DF80300C001ADF80000032023
:100D00008DF8020069460948FFF7C4FE10208DF8EF
:100D100003004FF49040ADF8000003208DF802006E
:100D200069460348FFF7B6FE08BD00000008014011
:100D3000000C014000B589B00121082000F060FAE4
:100D40000121022000F04CFA0020089018208DF8B4
:100D500023003020ADF8200003208DF8220008A9E0
:100D60002E48FFF797FE0121084600F049FA0121BD
:100D70002B48FFF71BFF01212A48FFF717FF002030
:100D8000059006900790ADF81A00ADF816004FF4E4
:100D90007A70ADF818004820ADF8140005A9224873
:100DA00001F036F80020019002900390049060203A
:100DB000ADF804000020ADF80C000120ADF80600ED
:100DC0000020ADF80A0001A9174800F059FF602083
:100DD000ADF804000020ADF80C000120ADF80600CD
:100DE0000020ADF80A0001A90F4800F09FFF012183
:100DF0000D4800F015FF01210B4800F005FF082108
:100E0000094800F089FF0821074800F0EEFF0121A2
:100E1000054800F00BFF09B000BD0000000C0140C8
:100E20000002300000081A000004004010B504461B
:100E30002146044800F0E6FF0021024800F0E4FFEC
:100E400010BD00000004004070B50646002415E007
:100E500004F1B001C8B200F073F9002000F070F99D
:100E6000102000F06DF9002504E0304600F07EF916
:100E7000681CC5B2802DF8DB601CC4B2082CE7DB0F
:100E800070BD00002DE9F04704460D461746A7F156
:100E900020004FF6FF7101EA00192E4621E006F10D
:100EA000B001C8B200F04CF904F00F0000F048F9AE
:100EB000102101EB141000F043F94FF000080BE093
:100EC00049464A1C1FFA82F9084A505C00F04EF964
:100ED00008F1010000F0FF08B8F1080FF0DB701C0A
:100EE000C6B2A81C8642DADBBDE8F0873A8D00085E
:100EF0002DE9F04104460D4616462F461DE007F148
:100F0000B001C8B200F01CF904F00F0000F018F9AD
:100F1000102101EB141000F013F94FF0000807E066
:100F200016F8010B00F022F908F1010000F0FF08AB
:100F3000B8F1100FF4DB781CC7B2A81C8742DEDBC7
:100F4000BDE8F0812DE9F04704460D461746984666
:100F5000DDF820902E461CE006F1B001C8B200F08A
:100F6000EFF804F00F0000F0EBF8102101EB141083
:100F700000F0E6F8A24607E019F8010B00F0F6F8D9
:100F80000AF1010000F0FF0AE0195045F4DC701C82
:100F9000C6B205EB0800B042DEDCBDE8F087000019
:100FA0002DE9F04106460F46144631E02078A1288D
:100FB00025DD002520E0207805EB0511174A12F801
:100FC0001110884216D1607805EB051102EB410142
:100FD000497888420ED105EB0510114601EB40001F
:100FE000821C39463046FFF783FF06F11000C6B277
:100FF000A41C03E0681CC5B2112DDCD308E02278E4
:1010000039463046FFF73EFF06F10800C6B2641CC1
:1010100020780028CAD1BDE8F0810000F88A0008D5
:1010200010B500F067F840213148FFF71BFE64203F
:1010300002F08FFB40212E48FFF712FEC82002F07D
:1010400088FB40212A48FFF70DFE642002F081FB57
:10105000AE2000F075F8D52000F072F8802000F086
:101060006FF8A82000F06CF83F2000F069F8D3205A
:1010700000F066F8002000F063F8402000F060F80F
:101080008D2000F05DF8142000F05AF8202000F0C8
:1010900057F8022000F054F8A12000F051F8C820C1
:1010A00000F04EF8DA2000F04BF8122000F048F87B
:1010B000812000F045F8EF2000F042F8D92000F040
:1010C0003FF8F12000F03CF8DB2000F039F8302048
:1010D00000F036F8A42000F033F8A62000F030F835
:1010E000AF2000F02DF80020FFF7AEFE10BD00008D
:1010F000000C014008B50121082000F081F8002013
:10110000009010208DF803004BF2C000ADF80000F5
:1011100003208DF8020069460848FFF7BBFC8021D8
:101120000648FFF79FFD4FF400510448FFF79AFD72
:1011300040210248FFF796FD08BD0000000C014069
:1011400010B504464FF480510748FFF789FD802110
:101150000548FFF785FD204600F01EF88021024873
:10116000FFF780FD10BD0000000C014010B50446E3
:101170004FF480510748FFF775FD80210548FFF7C0
:101180006FFD204600F008F880210248FFF76AFD55
:1011900010BD0000000C014070B5054600241AE0A7
:1011A0004FF400510D48FFF75BFD8020204128409F
:1011B00028B14FF400410948FFF754FD04E04FF413
:1011C00000410648FFF74CFD4FF400510348FFF77C
:1011D00049FD601CC4B2082CE2DB70BD000C01406C
:1011E00029B1064AD2690243044BDA6104E0034A9A
:1011F000D2698243014BDA6170470000001002405F
:1012000029B1064A92690243044B9A6104E0034AF9
:1012100092698243014B9A617047000000100240BE
:1012200030B500210022002400232D4D6D6805F00B
:101230000C0121B1042905D0082923D105E0294D4D
:10124000056022E0274D05601FE0254D6D6805F41F
:101250007012234D6D6805F48034022505EB92422F
:101260001CB9214D554305600BE01D4D6D6805F41B
:1012700000351DB11C4D5543056002E0194D554325
:10128000056002E0174D056000BF00BF144D6D689A
:1012900005F0F0010909154D6B5C0568DD404560FE
:1012A0000F4D6D6805F4E061090A104D6B5C4568EF
:1012B000DD4085600A4D6D6805F46051C90A0B4D2B
:1012C0006B5C4568DD40C560054D6D6805F44041C7
:1012D000890B074D6B5CC568B5FBF3F5056130BD47
:1012E0000010024000127A0000093D005500002065
:1012F0006500002008B501210820FFF781FF0020CC
:10130000009010208DF803004FF44070ADF80000FD
:1013100003208DF8020069460948FFF7BBFB002255
:101320001146104600F00EF84FF480710448FFF7A4
:1013300097FC4FF400710248FFF794FC08BD0000D1
:10134000000C01402DE9F04106460D4614460020F0
:1013500000F028F8002000F025F8002000F022F826
:10136000002000F01FF804F0C000801005F0C0015C
:1013700040EA211040EA961004F0C00161EA000042
:10138000C7B2384600F00EF8204600F00BF82846A9
:1013900000F008F8304600F005F8002000F002F8F0
:1013A000BDE8F08170B50546002423E04FF480715C
:1013B0001248FFF755FC142002F0D7F98020204195
:1013C000284028B14FF400710C48FFF74BFC04E0B3
:1013D0004FF400710948FFF743FC142002F0C5F9EF
:1013E0004FF480710548FFF73DFC142002F0BDF971
:1013F000601CC4B2082CD9DB70BD0000000C014099
:1014000008B501210820FFF7FBFE00200090102006
:101410008DF803000220ADF8000003208DF80200D3
:1014200069460248FFF736FB08BD0000000C01408A
:1014300010B500F001F810BD0CB50020019000902F
:101440003348006840F480303149086000BF3048BC
:10145000006800F4003000900198401C0190009852
:1014600018B90198B0F5A06FF1D12948006800F4CF
:10147000003010B10120009001E0002000900098A1
:10148000012843D12348006840F01000214908603A
:101490000846006820F0030008600846006840F035
:1014A000020008601A4840681949486008464068C8
:1014B00048600846406840F48060486008464068DC
:1014C00020F47C1048600846406840F4E81048600A
:1014D0000846006840F08070086000BF0C48006853
:1014E00000F000700028F9D00948406820F003009F
:1014F000074948600846406840F00200486000BF65
:101500000348406800F00C000828F9D10CBD000029
:1015100000100240002002401CB500BF30A001F0C6
:1015200069FC334833A301224FF47A71009032A052
:1015300006F002FB32490860324833A301224FF41F
:10154000FA61009031A006F0F7FA324908600022F3
:1015500001210A2005F028FF2F49086003220021FD
:10156000012005F021FF2D49086003210A2005F024
:10157000FDFE2B490860012005F005FF29490860A0
:101580002948022100234022CDE9001027A1294843
:1015900006F00EF92848012100234022CDE9001071
:1015A00026A1284806F004F92748032100234022F9
:1015B000CDE9001025A1274806F0FAF806F038F921
:1015C000044600200346224601210090114800688D
:1015D00006F0ECFA2048006805F08AFD00BFFEE73F
:1015E000BDF8C8EBC6F0CABCC8CECEF10D0A0000EB
:1015F000C12700083100000074696D657231000078
:1016000014000020C92700083200000074696D65CD
:10161000723200001800002020000020240000206A
:10162000280000202C000020080000207461736B4B
:1016300031000000B51E0008100000207461736BBB
:1016400033000000452200080C0000207461736B19
:101650003200000009220008040000202DE9F041BA
:1016600007460C46154600269EE0012C4CD18021F1
:101670005248FFF7F7FA40215048FFF7F1FA2021CE
:101680004E48FFF7EDFA10214C48FFF7EBFA3846C9
:1016900002F05FF880214948FFF7E2FA402147480D
:1016A000FFF7E0FA20214548FFF7DAFA1021434816
:1016B000FFF7D8FA384602F04CF880213F48FFF790
:1016C000CFFA40213D48FFF7CDFA20213B48FFF7F4
:1016D000C9FA10213948FFF7C3FA384602F039F841
:1016E00080213648FFF7BEFA40213448FFF7B8FAA8
:1016F00020213248FFF7B6FA10213048FFF7B0FA40
:10170000384602F026F84DE0022C4BD180212B48C0
:10171000FFF7A8FA40212948FFF7A2FA202127481D
:10172000FFF7A0FA10212548FFF79AFA384602F091
:1017300010F880212148FFF793FA40211F48FFF756
:1017400091FA20211D48FFF78DFA10211B48FFF761
:1017500087FA384601F0FDFF80211848FFF780FA2C
:1017600040211648FFF77EFA20211448FFF778FA47
:1017700010211248FFF776FA384601F0EAFF80217F
:101780000E48FFF76FFA40210C48FFF769FA202155
:101790000A48FFF765FA10210848FFF763FA384650
:1017A00001F0D7FF701C86B2E800B0423FF75DAF92
:1017B000F0210248FFF754FABDE8F081000801402B
:1017C00008B501210420FFF71BFD00200090102028
:1017D0008DF80300F020ADF8000003208DF8020022
:1017E00069460448FFF756F9F0210248FFF738FA36
:1017F00008BD0000000801402DE9F04107460C46F5
:10180000154600269EE0012C4CD180215248FFF75E
:1018100029FA40215048FFF723FA20214E48FFF7CC
:101820001FFA10214C48FFF71DFA384605F046FC18
:1018300080214948FFF714FA40214748FFF712FA80
:1018400020214548FFF70CFA10214348FFF70AFA18
:10185000384605F033FC80213F48FFF701FA40216C
:101860003D48FFF7FFF920213B48FFF7FBF9102126
:101870003948FFF7F5F9384605F020FC8021364855
:10188000FFF7F0F940213448FFF7EAF92021324808
:10189000FFF7E8F910213048FFF7E2F9384605F084
:1018A0000DFC4DE0022C4BD180212B48FFF7DAF9DB
:1018B00040212948FFF7D4F920212748FFF7D2F922
:1018C00010212548FFF7CCF9384605F0F7FB8021B9
:1018D0002148FFF7C5F940211F48FFF7C3F9202130
:1018E0001D48FFF7BFF910211B48FFF7B9F938462B
:1018F00005F0E4FB80211848FFF7B2F940211648B3
:10190000FFF7B0F920211448FFF7AAF91021124877
:10191000FFF7A8F9384605F0D1FB80210E48FFF704
:10192000A1F940210C48FFF79BF920210A48FFF755
:1019300097F910210848FFF795F9384605F0BEFBE6
:10194000701C86B2E800B0423FF75DAFF02102485C
:10195000FFF786F9BDE8F0810008014010B500BF2F
:10196000BF2080F31188BFF34F8FBFF36F8F00BF8D
:1019700005F064FF18B14FF080500449086000BFC3
:10198000002080F3118800BF10BD000004ED00E0CE
:1019900010B51348006840F001001149086008467E
:1019A0004068104908400E494860084600680E49E2
:1019B00008400B4908600846006820F48020086051
:1019C0000846406820F4FE0048604FF41F0088601D
:1019D000FFF72EFD4FF000600449086010BD0000C5
:1019E000001002400000FFF8FFFFF6FE08ED00E0E7
:1019F0002DE9FE430121C802FFF702FC0020009000
:101A000001900290ADF80600ADF8020040F2E73018
:101A1000ADF804004720ADF8000069462E4800F0FC
:101A2000F7F901212C4800F0FBF801212A4800F0C9
:101A3000EBF819200422012400251346C3F1070CFA
:101A4000BCF1040F01D9944601E0C3F1070C6746CD
:101A500003F1040CBCF1070F02D24FF0000C01E0BF
:101A6000A3F1030C66464FF0010C0CFA07FCACF135
:101A7000010C0CEA040C0CFA06FC4FF0010808FA01
:101A800006F8A8F1010808EA05084CEA080100BFB9
:101A9000002807DA0A07140E104A00F00F031B1F74
:101AA000D45403E00A07130E0D4A135400BF192043
:101AB000012181404209920002F1E022C2F80011A6
:101AC00000BF01221146044800F0D0F8012102486D
:101AD00000F0ACF8BDE8FE83002C014018ED00E0FA
:101AE00000E400E010B50121044800F09CF803F088
:101AF0001FFC034803F004FF10BD0000002C014050
:101B0000EA01002010B50121880700F09EF8A0B17D
:101B10000121880700F087F8002432480068C0F3EC
:101B20000744214630A001F065F94FF4FA7001F046
:101B300010FE00202D49087000BF0421080700F0A6
:101B400084F800284DD00421080700F06CF8022129
:101B50002748FFF773F860B10221480700F038F911
:101B600000214FF0804000F051F901201F4908701A
:101B700037E002211E48FFF761F818BB00214FF043
:101B8000804000F025F94FF0804000F05BF81949E3
:101B9000086016480078B0B1124800684008114942
:101BA00008601448006840F2DC51884219D9114895
:101BB0000068B0F5E16F14D20A48006840F00040B8
:101BC000084908600DE00B480068B0F57A6F08D945
:101BD0000848006841F28831884202D20120034956
:101BE000087010BD5000002025780000480000203B
:101BF000000801404C00002010B50121014800F010
:101C000012F810BD0008004021B1028842F08002A5
:101C1000028004E002884FF67F731A40028070470A
:101C2000CA4302827047CA430282704721B10288C8
:101C300042F00102028004E002884FF6FE731A406F
:101C4000028070470146088F704730B50246002079
:101C500000230024158A05EA0103958905EA010499
:101C600013B10CB1012000E0002030BD1AB183890E
:101C70000B43838102E083898B438381704700009B
:101C800070B5002400220023058C4FF6FE76354007
:101C90000584028C8388048B4FF68F752C40B51E0B
:101CA0002C400D882C43751E2A400D892A434D88EF
:101CB0002A43144DA8420BD0134DA84208D0134D0F
:101CC000A84205D0124DA84202D0124DA84213D10D
:101CD0004FF6F7752A404D892A434FF6FB752A4087
:101CE0008D882A434FF6FF652B404FF6FF552B405A
:101CF0008D892B43CD892B4383800483CD888586B2
:101D0000028470BD002C01400034014000400140BD
:101D100000440140004801400A460021018B4FF673
:101D2000F7731940114301837047000070B5002418
:101D300000220023058C4FF6EF7635400584028C97
:101D40008388048B48F6FF752C404FF6FF452C40E6
:101D50000D884FF6FF7606EA05252C434FF6DF7512
:101D60002A400D8906EA05152A434D8806EA05151D
:101D70002A43154DA84202D0144DA8421DD14FF65A
:101D80007F752A404D894FF6FF7606EA05152A43EE
:101D90004FF6BF752A408D8806EA05152A434FF68F
:101DA000FF352B404FF2FF752B408D8906EA8505E4
:101DB0002B43CD8906EA85052B4383800483CD8898
:101DC0000587028470BD0000002C014000340140F2
:101DD0000A460021018C4FF6DF7319404FF6FF735E
:101DE00003EA02131943018470470A460021018B5C
:101DF0004FF2FF7319404FF6FF7303EA02231943B2
:101E000001837047818670470187704781847047DE
:101E1000002202881D4B98420ED01D4B98420BD0D9
:101E2000B0F1804F08D01B4B984205D01A4B984216
:101E300002D01A4B984204D14FF68F731A404B8848
:101E40001A43174B984207D0164B984204D04FF6CE
:101E5000FF431A40CB881A4302808B8883850B8806
:101E600003850A4B98420BD0094B984208D00E4B81
:101E7000984205D00D4B984202D00D4B984201D1AB
:101E80000B7A03860123838270470000002C0140F7
:101E9000003401400004004000080040000C0040F5
:101EA0000010004000140040004001400044014088
:101EB0000048014008B500BFC3A000F09BFF002010
:101EC00000907FE14FF0FF326946C148006805F09D
:101ED000BDFB01287ED19DF80000012804D0022816
:101EE00068D0032865D15BE1BA480078032821D186
:101EF000B9480078401CC0B2B7490870032801DD1A
:101F000001200870B5A202215A20FFF749F8B3A2B8
:101F100004215A20FFF744F8B0A206215A20FFF707
:101F20003FF8AD4800784006010EAD4A5A20FEF752
:101F3000DFFF3EE0A7480078042812D1A9480078C6
:101F4000401EC0B2A7490870052801DD00200870B6
:101F5000A4480078A449C1F805000020A3490870EE
:101F600027E09C480078052823D1A148C078401C70
:101F7000C0B29F49C870032801DD0120C87097A234
:101F800002212420FFF70CF894A204212420FFF75B
:101F900007F892A206212420FFF702F89448C0789F
:101FA0004006010E8E4A2420FEF7A2FF0120904930
:101FB000087103E187480078032840D186480078FB
:101FC000012812D18B48006880F4006089490860BC
:101FD000854800E0F3E0007880F0010008B10120BE
:101FE00000E0002080490870D9E07B480078022892
:101FF00010D18048006880F480407E4908607A48AB
:10200000407880F0010008B1012000E0002076490E
:102010004870C4E0704800780328E5D1764800682D
:1020200080F40060744908606F48807880F0010097
:1020300008B1012000E000206B498870AFE06548DE
:102040000078042812D167480078401CC0B2654966
:102050000870052801DD0520087062480078624993
:10206000C1F8050000206149087098E059480078DF
:10207000052859D15E48C078012818D15C480078FD
:1020800032305B490870084600782C2802DAFA20C2
:10209000087006E0564800782C2802D100205449E8
:1020A0000870534800785049C1F8090038E050489A
:1020B000C078022818D14E48407832304C494870D8
:1020C000084640782C2802DAFA20487006E0484892
:1020D00040782C2802D10020454948704448407877
:1020E0004149C1F80D001BE04148C078032817D1D1
:1020F0003F48807832303E498870084680782C28E6
:1021000002DAFA20887006E0394880782C2802D15B
:10211000002037498870364880783349C1F811006B
:102120000120334908713AE02A480078062813D183
:102130003248007880F001003049087001203049B1
:1021400008702948C07880F0010008B1012000E043
:1021500000202549C87022E01E48007807281ED1BB
:102160002848007880F00100264908700846007869
:1021700028B102211F480C38FEF774FD04E002214B
:102180001C480C38FEF76CFD02211A480C38FEF78B
:102190005EFD08B1012000E00020134908710DE048
:1021A0000C480078401CC0B20A490870072801DDBD
:1021B0000120087000200D49087000BF00BF1420E6
:1021C00004F07CFF7EE60000BDF8C8EB310D0A008C
:1021D00020000020300000203200002020200000DD
:1021E000187C000833000020EA01002031000020A4
:1021F000340000200C0C01400C0801403900002084
:102200003A0000203B00002008B500BF0AA000F003
:10221000F1FD10E003F07AFE00909DF8000030B16F
:1022200000231A4669460648006805F017F932206F
:1022300004F044FF00BFEDE7BDF8C8EB320D0A0023
:102240002000002008B500BFFEA000F0D3FDA8E2EA
:10225000FE480078012825D1FD480078002820D1CB
:102260000120FB4908700020FEF7EEFDF9A20021D5
:102270002820FEF795FEF9A202210020FEF790FE2D
:10228000F8A204210020FEF78BFE05F0D1FA0446E7
:1022900000200346224601210090F448006805F022
:1022A00085FC7BE2E948007802280FD1E8480078F5
:1022B0000028F6D10120E64908700020FEF7C4FD91
:1022C000EBA200212C20FEF76BFE67E2DF480078CE
:1022D000032858D1DE48007808BB0120DC4908708B
:1022E0000020FEF7B1FDE4A200213420FEF758FEE5
:1022F000E2A202210A20FEF753FEE2A204210A20F4
:10230000FEF74EFEE1A206210A20FEF749FEE14853
:1023100000784006010EE04A5A20FEF7E9FD4FF42E
:102320000061DE48FEF793FC28B1DDA202213820CF
:10233000FEF736FE04E0DBA202213820FEF730FE75
:102340004FF48041D548FEF782FC28B1D4A2042185
:102350003820FEF725FE04E0D2A204213820FEF743
:102360001FFE4FF40061D048FEF771FC28B1CCA2EB
:1023700006213820FEF714FE10E2CAA206213820FA
:10238000FEF70EFE0AE2B1480078042850D1B048AA
:10239000007830BB0120AE4908700020FEF754FDE4
:1023A000C2A200213020FEF7FBFDC248007800EBFE
:1023B0004000C14901EB401002233022032100906C
:1023C0004820FEF7BFFDBB48007800EB800082008C
:1023D000BAA1BC4800F01EFDBA4A05215420FEF700
:1023E000DFFDB4490978C82201FB02F0FEF71EFDAB
:1023F000B048007898B100240EE0B34800EBC41058
:1024000004232022032100901020FEF79BFD1420BE
:1024100004F054FE601CC4B2052CEEDBBEE1AA48F9
:1024200004232022032100901020FEF78BFDB5E14C
:102430008648007805287CD185480078002854D14A
:102440000120834908700020FEF7FEFC9FA20021B6
:102450003420FEF7A5FD9EA202210A20FEF7A0FD72
:102460009CA204210A20FEF79BFD9BA206210A20C4
:10247000FEF796FD9948C0784006010E864A242052
:10248000FEF736FD95480078322190FBF1F000EB25
:102490004000894901EB40140223302219464820AC
:1024A0000094FEF74FFD8D484078322190FBF1F00B
:1024B00000EB4000804901EB40140223302204214C
:1024C00048200094FEF73EFD84488078322190FB3E
:1024D000F1F000EB4000784901EB40140223302278
:1024E000062148200094FEF72DFD7C4B9A78597800
:1024F0001878FEF727FF7948007900288ED0002051
:102500007649087108460078322190FBF1F000EB23
:102510004000694901EB401402233022194648204B
:102520000094FEF70FFD6D484078322190FBF1F0EA
:1025300000E01DE000EB40005F4901EB4014022386
:102540003022042148200094FEF7FCFC6348807888
:10255000322190FBF1F000EB4000574901EB4014B1
:1025600002233022062148200094FEF7EBFC15E1FF
:1025700036480078062863D135480078F0B9012044
:10258000334908700020FEF75FFC55A2002130207F
:10259000FEF706FD5448007840B154480423402219
:1025A000032100902020FEF7CDFC07E050480423D3
:1025B0004022032100902020FEF7C4FC4D48007803
:1025C0000028D4D000204B49087047480078F0B16B
:1025D000082419E0601E454901EB00200423402235
:1025E000032100902020FEF7ADFC0C2201210846BB
:1025F000FFF702F915480078062802D13A4800781A
:1026000000B903E0601EC4B2002CE3DCC6E0002485
:1026100074E0364800EB042004234022032100909C
:102620002020FEF78FFC0C2202210120FFF7E4F8A6
:1026300006480078062802D12B48007808B95FE0E8
:102640005FE059E0BDF8C8EB330D0A003000002010
:1026500031000020D4C6BCD2BED30000C8D5C6DA33
:10266000A3BA0000CAB1BCE4A3BA00001400002061
:1026700044485431310000004C4544004C4544313D
:10268000000000004C454432000000004C4544333B
:102690000000000032000020187C0008000C0140FF
:1026A0004F4E20004F46460000080140B7E7C9C81A
:1026B0000000000033000020387D00082564252537
:1026C00020200000D6010020787F000852474200F9
:1026D00052000000470000004200000034000020CB
:1026E000B4B0C1B10000000039000020F88100083A
:1026F000F88800083A000020601CC4B2082C88DB6F
:102700004CE028480078072848D12748007850B97D
:102710000120254908700020FEF796FB23A2002126
:102720003020FEF73DFC02212248FEF790FA2249B4
:1027300001EBC01404232022032114200094FEF78F
:1027400001FC02211B48FEF782FAF8B100241AE0CE
:1027500004EB4400194901EB40100223302204210C
:1027600000904620FEF7EEFBC82004F0A7FC0D48C1
:102770000078072804D102210E48FEF768FA00B954
:1027800003E0601CC4B2062CE2DB07E00B48022326
:102790003022042100904620FEF7D4FB052004F0EF
:1027A0008DFC55E53000002031000020B3E4B5E792
:1027B00000000000000C0140387C0008387D000853
:1027C00010B503F05BF810BD30B587B00020194993
:1027D0000870FEF7E3F8184800681849C1F81500BA
:1027E00017480068C1F819001648007802281FD160
:1027F00011480068FDF7B5FD044622460B4612A1BC
:1028000004A800F007FB0E480068FDF7AAFD044687
:1028100022460B460FA101A800F0FCFA04AA0221EF
:102820001820FEF7BDFB01AA04211820FEF7B8FB13
:1028300007B030BD0000002040000020EA01002069
:102840004400002030000020CEC2B6C83A252E3108
:1028500066000000CAAAB6C83A252E3166000000FC
:1028600010B540F22551184800F076F898B140F2C2
:102870002551154800F048F8134800F029F9C1B275
:102880001248B0F8C820B0F8C800401C0F4BA3F89D
:10289000C8001846815440F224410B4800F05CF80F
:1028A00080B1094800880848001D008800200749B9
:1028B000B1F8C810054A50541146A1F8C80004A048
:1028C00000F098FA10BD0000003801400C01002013
:1028D0002573000010B540F22551094800F03CF87E
:1028E00068B140F22551064800F00EF8044800F0A7
:1028F000EFF8044908700121024802F063FC10BDA2
:10290000004400405400002010B50022002340F68F
:102910006A14A14200D100BF0A1201249440A3B25C
:10292000DC43048010BD21B1828942F400528281CF
:1029300004E082894DF6FF731A4082817047024697
:102940000020B1F5007F00D100BF13880B400BB110
:10295000012000E00020704770B5024600240023EB
:102960000025002040F66A16B14200D100BFC1F335
:10297000421501F01F03012606FA03F3012D02D1CF
:102980009689334006E0022D02D1168A334001E0D9
:10299000968A33400C12012606FA04F41688344055
:1029A00013B10CB1012000E0002070BDF0B503466A
:1029B000002400260025002040F66A17B94200D105
:1029C00000BF1846C1F3421401F01F06012707FAA1
:1029D00006F5012C01D10C3004E0022C01D110309D
:1029E00000E014301AB107682F43076002E007685F
:1029F000AF430760F0BD00002DE9F04786B0054603
:102A00000E460024A24600BFA1460027B08900B1AF
:102A100000BF2F462C8A4CF6FF700440F088044318
:102A20002C82AC894EF6F3100440B08831890843FB
:102A3000718908430443AC81AC8A4FF6FF400440DF
:102A4000B0890443AC8201A8FEF7EAFB1F48874225
:102A500002D1DDF810A001E0DDF80CA0A88900F497
:102A6000004040B10AEBCA0000EB0A10316849008F
:102A7000B0FBF1F807E00AEBCA0000EB0A1031687E
:102A80008900B0FBF1F86420B8FBF0F004012009E4
:102A9000642101FB1089A88900F4004040B1322074
:102AA00000EBC900B0FBF1F000F00700044308E0C0
:102AB000322000EB09106421B0FBF1F000F00F00B0
:102AC00004432C8106B0BDE8F087000000380140C7
:102AD00001468888C0F308007047C1F3080282806D
:102AE000704700002DE9F04385B004460121042021
:102AF000FEF786FB01218803FEF782FB002004908D
:102B000018208DF813004FF40070ADF8100003206A
:102B10008DF8120004A94248FDF7BCFF04208DF88F
:102B200013000002ADF8100003208DF8120004A974
:102B30003B48FDF7AFFF002000900190029003900A
:102B40000094ADF80C000C20ADF80A000020ADF8A0
:102B50000800ADF80600ADF8040069463148FFF7FB
:102B60004BFF25200422052500261346C3F1070844
:102B7000B8F1040F02D94FF0040801E0C3F10708CF
:102B8000C44603F10408B8F1070F02D24FF0000861
:102B900001E0A3F1030847464FF0010808FA0CF8DA
:102BA000A8F1010808EA050808FA07F84FF001093A
:102BB00009FA07F9A9F1010909EA060948EA090130
:102BC00000BF002807DA0A07150E174A00F00F03A6
:102BD0001B1FD55403E00A07130E144A135400BFF9
:102BE000252000F01F02012191404209920002F1CC
:102BF000E022C2F8001100BF012240F2255109482D
:102C0000FFF7D4FE012240F224410648FFF7CEFE32
:102C100001210448FFF787FE05B0BDE8F0830000FE
:102C2000000801400038014018ED00E000E400E039
:102C30002DE9F04186B001210420FEF7E1FA0121DF
:102C40004804FEF7CDFA0020059018208DF81700F3
:102C50000420ADF8140003208DF8160005A94048A3
:102C6000FDF718FF04208DF817000820ADF81400B8
:102C700003208DF8160005A93948FDF70BFF002049
:102C800001900290039004904FF4165001900020A0
:102C9000ADF810000C20ADF80E000020ADF80C00CF
:102CA000ADF80A00ADF8080001A92E48FFF7A4FE10
:102CB00026200422022400251346C3F1070CBCF190
:102CC000040F02D94FF0040C01E0C3F1070C674672
:102CD00003F1040CBCF1070F02D24FF0000C01E02D
:102CE000A3F1030C66464FF0010C0CFA07FCACF1A3
:102CF000010C0CEA040C0CFA06FC4FF0010808FA6F
:102D000006F8A8F1010808EA05084CEA080100BF26
:102D1000002807DA0A07140E134A00F00F031B1FDE
:102D2000D45403E00A07130E104A135400BF2620A0
:102D300000F01F02012191404209920002F1E022BD
:102D4000C2F8001100BF012240F225510548FFF7EB
:102D50002DFE01210348FFF7E6FD06B0BDE8F08136
:102D6000000801400044004018ED00E000E400E0ED
:102D700010B503F0CBF80446012C05D1022002F077
:102D800081FF0AA000F036F8022C05D1012002F0E4
:102D900079FF0CA000F02EF8032C05D1002002F0E2
:102DA00071FF0EA000F026F810BD000057494649FB
:102DB0005F4149524C494E4B5F4D4F4445204F4B6C
:102DC0000D0A0000574946495F534F465441505F32
:102DD0004D4F4445204F4B0D0A00000057494649CE
:102DE0005F52455345545F4D4F4445204F4B0D0AAC
:102DF000000000000FB4054B10B503A9044A029867
:102E000000F0DEF810BC5DF814FB00008538000807
:102E1000040100200FB4084B10B504A902AA0398BE
:102E200000F0CEF8044602A9002000F060FC204625
:102E300010BC5DF814FB0000EF36000802E008C883
:102E4000121F08C1002AFAD170477047002001E024
:102E500001C1121F002AFBD1704700002DE9FF5F5E
:102E6000DDE90220010DDDF838B0024318D044F648
:102E70001050A1F2FF3141430D140F98012820D0CA
:102E8000A5EB0B00401C5FEA000A4FF00004474E20
:102E9000DFF81C91A046504616D5CAF1000728E07D
:102EA0000F98012443A2012808D0002100980F9B0D
:102EB000C0E90021C0E90243BDE8FF9F6FEA0B01B2
:102EC000F4E7CBF10000DEE7074612E0F80707D091
:102ED0002246334640464946FDF785FB80468946F3
:102EE0002246334610461946FDF77DFB04460E4642
:102EF0007F10002FEAD1DDE90201BAF1000F42464E
:102F00004B4602DAFDF76FFB01E0FDF7DEFB0446FE
:102F10000E460022284BFDF75FFC03D84FF0FF3030
:102F2000014607E00022254B20463146FDF7B4FA62
:102F3000FDF73AFC102409E0002C0ADB0A220023EA
:102F4000FDF742FA019B30321A55641E50EA010225
:102F5000F2D1641C019AC4F1110314440F9A012A9E
:102F600003D0012208430DD10AE0084304D0002019
:102F70004FF0110B0F9080E7A3EB0B056D1E0DE0DA
:102F80005B4504DD4FF0000205F1010504E003DAC2
:102F90004FF00002A5F10105002AECD000980F992E
:102FA000C0E90231C0E9004586E700000000244086
:102FB0000000F03F300000000000F0430000E03F60
:102FC0002DE9FF4F95B09B468946064600250FE246
:102FD000252877D100242746F84A0121059400E0EE
:102FE000044316F8013F203B01FA03F01042F7D1E9
:102FF00030782A2811D06FF02F033078A0F13002FA
:10300000092A16D8059A44F0020402EB820203EB67
:1030100042021044761C0590EFE759F8042B059204
:10302000002A03DA504244F40054059044F00204AC
:10303000761C30782E2816D116F8010F44F00404BF
:103040002A280DD06FF02F023078A0F13003092B21
:1030500009D807EB870302EB4303C718761CF3E795
:1030600059F8047B761C30786C280FD006DC4C288D
:1030700017D068280DD06A2814D104E0742810D025
:103080007A280FD10DE044F400140AE044F48014CF
:1030900001E044F440147278824202D104F58014B5
:1030A000761C761C307866280BD013DC582877D035
:1030B00009DC002875D04528F6D04628F4D04728EA
:1030C0001AD19DE118E0632835D0642879D06528AD
:1030D00012D195E1702873D008DC6728F1D06928F7
:1030E0006FD06E280DD06F2806D1B5E073282CD094
:1030F000752875D0782874D05A46179990476D1C5A
:1031000075E1C4F30250022809D003280DD0D9F884
:10311000001004280DD00D6009F1040967E1D9F809
:103120000010EA17C1E90052F6E7D9F800100D8047
:10313000F2E70D70F0E719F8041B8DF8001000207D
:103140008DF80100EA46012003E059F804AB4FF086
:10315000FF3061074FF0000102D40DE008F10101DA
:103160008846B9420FDA8045F8DB1AF808100029C2
:10317000F4D108E008F1010188468142FADB1AF82F
:1031800008100029F6D105985B46A0EB08072146F8
:103190003846179A00F094FA284400EB080507E037
:1031A0004DE029E10DE01AF8010B5A4617999047B6
:1031B000B8F10108F7D25B4621463846179A13E169
:1031C00042E00A220092C4F302524FF0000A022A9F
:1031D00008D059F804CB032A4FEAEC710AD00DE06D
:1031E00029E02AE009F1070121F00702F2E802C113
:1031F000914609E00FFA8CFC4FEAEC71042A03D1E6
:103200004FFA8CFC4FEAEC71002907DA0A460021DC
:10321000DCF1000C61EB02012D2202E0220504D555
:103220002B228DF80420012203E0E20701D02022A6
:10323000F7E7904659E00A2102E010220DE0102144
:103240004FF0000A00910BE010224FF0000A44F00A
:1032500004040827009203E008224FF0000A0092BD
:10326000C4F30252022A05D059F804CB0021032AE4
:1032700008D009E009F1070121F00702F2E802C1D4
:10328000914605E01FFA8CFC042A01D10CF0FF0CDA
:103290004FF00008220728D5702806D0009B83F045
:1032A000100353EA0A0305D00EE040228DF80420F3
:1032B000012208E05CEA010206D030228DF80420E9
:1032C0008DF8050002229046009B83F0080353EA24
:1032D0000A030AD15CEA010201D1620705D5302256
:1032E0008DF804204FF001087F1E582804D034A028
:1032F00003900EA802900DE036A0F9E75346604611
:10330000009AFDF761F884460398825C0298401E9B
:10331000029002705CEA0100F0D1029806A9081A36
:1033200000F1200A600702D524F4803400E0012770
:10333000574502DDA7EB0A0000E0002000EB0A0180
:10334000009005984144401A0590E00306D45B467E
:103350002146179A059800F0B3F90544002706E0C6
:1033600001A85A46C05D179990476D1C7F1C4745C0
:10337000F6DBE0030CD55B462146179A059800F072
:103380009FF9054404E030205A46179990476D1C78
:103390000099481E00900029F5DC08E00298029987
:1033A0005A460078491C0291179990476D1CBAF152
:1033B0000001AAF1010AF1DC65E100000928010021
:1033C000303132333435363738396162636465669B
:1033D000000000003031323334353637383941425D
:1033E000434445460000000000F058F90544761CAF
:1033F000307800287FF4ECAD19B02846BDE8F08F96
:10340000620700D4062709F1070222F0070CFCE846
:103410000223E14603F000485FEA080C02D00FF2F5
:10342000702C0DE05FEA045C02D50FF2682C07E017
:103430005FEAC47C02D00FF2602C01E0AFF2700CA6
:103440004FF0FF3823F00043CDF850C065280CD072
:1034500006DC452809D046281DD047283DD13DE04F
:10346000662818D067287ED138E00021112F01DBB3
:10347000112000E0781CCDE9000106A90EA8FFF795
:10348000EDFCDDE90F010E9A03910021009207F196
:10349000010A04914DE04FF000400097CDE9011082
:1034A00006A90EA8FFF7DAFCDDE90F0203920E9BD6
:1034B00011990022DDF80CA00093049211B9791C37
:1034C00000EB010AB7EB0A0004D4C0F1FF3007F1AA
:1034D000010A0490AAEB0700019044E0012F00DAF2
:1034E00001270021112F01DD112000E03846CDE930
:1034F000000106A90EA8FFF7B1FCDDE90F010E9A45
:103500000391002104910092BA4621070CD403993B
:10351000514500DA8A46BAF1010F05DD009AAAF199
:103520000101515C302908D0B84202DA10F1040FD1
:1035300006DA0121CDE9011015E0AAF10101E9E760
:10354000002805DC049901440491AAEB000102E083
:10355000411C514500DD8A460499401A401C0190E7
:103560004FF000400290200704D40198504501DB41
:10357000CDF8048000208DF84F0002980DF14F0720
:10358000B0F1004F25D02B200E9002984FF002088A
:1035900000280CDA404202902D200E9007E00A210C
:1035A0000298FCF7FBFE3031029007F8011DB8F1DC
:1035B0000001A8F10108F2DC02980028EFD1791E81
:1035C0000E980870307800F0200040F0450007F8B1
:1035D000020D12A8C01B00F107081498007800B172
:1035E000012000EB0A01019801EBE07105984144CC
:1035F000401A401E0590E00306D45B462146179A08
:10360000059800F05DF805441498007818B15A4602
:10361000179990476D1CE00324D55B462146179A05
:10362000059800F04DF805441CE00498002807DBDD
:10363000DDE90301884203DD0098405C179901E051
:10364000179930205A469047049805F10105401C0F
:1036500004900198401E019004D12E205A461799DB
:1036600090476D1CBAF10001AAF1010ADDDC05E00A
:1036700017F8010B5A46179990476D1CB8F10001D5
:10368000A8F10108F4DC5B462146179A0598ABE6E1
:103690002D0000002B000000200000002DE9F0416B
:1036A000044600251E461746880404D405E0394622
:1036B0002020B0476D1C641EF9D52846BDE8F08176
:1036C0002DE9F041044600251E469046C80301D569
:1036D000302700E02027880404D505E0414638461D
:1036E000B0476D1C641EF9D52846BDE8F0810A6814
:1036F000531C0B60107070470246002100201378A5
:1037000003F0010303B1491C1378C3F3400303B171
:10371000491C1378C3F3800303B1491C1378C3F326
:10372000C00303B1491C1378C3F3001303B1491C50
:103730001378C3F3401303B1C91C09B9002007E093
:1037400001F007030BB9C80802E0012303EBD10025
:10375000704700B5034603E04FF47A7000F005F8B7
:10376000181EA3F10103F7D100BD47E000BF00BF61
:1037700000BF00BF00BF00BF00BF00BF00BF00BF51
:1037800000BF00BF00BF00BF00BF00BF00BF00BF41
:1037900000BF00BF00BF00BF00BF00BF00BF00BF31
:1037A00000BF00BF00BF00BF00BF00BF00BF00BF21
:1037B00000BF00BF00BF00BF00BF00BF00BF00BF11
:1037C00000BF00BF00BF00BF00BF00BF00BF00BF01
:1037D00000BF00BF00BF00BF00BF00BF00BF00BFF1
:1037E00000BF00BF00BF00BF00BF00BF00BF00BFE1
:1037F00000BF00BF00BF00BF00BF00BF011EA0F19F
:103800000100B3D170470000012101200B4A12686A
:103810000AB1002011E00A4A12680AB100200CE047
:10382000084A12680AB1002007E0074A1368074AED
:103830001268521E934200D1022070474049002076
:10384000D8000020D400002068490020C4000020D7
:1038500001B581B000200090694601AA5078087037
:1038600010784870BDF800000CBD0146080601F450
:103870007F4240EA022001F47F0240EA122040EA3F
:103880001160704770B504460D4600BF80210548A1
:10389000FFF755F80028F9D0A1B20248FFF71DF94B
:1038A000204670BD0038014010B5002821D0114BD2
:1038B0000022001F196803E0814203D80A464968C4
:1038C0000029F9D152B11368841A9C4204D10068CE
:1038D00018441060104602E0506000E0186039B1F2
:1038E00002680B1A934203D10B681A4402604968BC
:1038F000416010BD08010020024612B102F007002D
:1039000028B9082901D8002070470120FCE702F0FF
:103910000700C0F10800884201D30020F4E701202D
:10392000F2E730B502460B460021002400250AB913
:10393000481E30BD002108E0545C581A401E155C3A
:103940005554581A401E1454491CB1EB530FF3D36D
:103950000020EEE72DE9F04104460D460026002741
:1039600004B135B974A0FFF745FA4FF0FF30BDE858
:10397000F08100F04BFC07462878217888420CD073
:1039800077A0FFF737FA7B4890F8380120F0010064
:10399000401C784981F838010126687861788842AE
:1039A0000CD075A0FFF726FA724890F8380120F085
:1039B0000200801C6F4981F838010126A878A1789F
:1039C00088420CD071A0FFF715FA6A4890F83801C8
:1039D00020F00400001D674981F838010126E878CD
:1039E000E17888420CD06EA0FFF704FA614890F8A5
:1039F000380120F0080008305E4981F838010126BE
:103A00002879217988420CD06AA0FFF7F3F9594848
:103A100090F8380120F010001030564981F8380134
:103A20000126D5F80500D4F8051088420CD066A010
:103A3000FFF7E0F94F4890F8380120F020002030DF
:103A40004C4981F838010126D5F80900D4F809104D
:103A500088420CD061A0FFF7CDF9464890F83801B4
:103A600020F040004030434981F838010126D5F864
:103A70000D00D4F80D1088420CD05CA0FFF7BAF905
:103A80003C4890F8380120F080008030394981F8B6
:103A900038010126D5F81100D4F8111088420CD055
:103AA00056A0FFF7A7F9334890F8390120F001003C
:103AB000401C304981F839010126D4F81510D5F899
:103AC0001500FCF761FC13D050480068381A41F229
:103AD000707188420CD34EA0FFF78CF9254890F8FE
:103AE000390120F00200801C224981F839010126A9
:103AF000D4F81910D5F81900FCF746FC13D0434848
:103B00000068381A41F2707188420CD345A0FFF763
:103B100071F9184890F8390120F00400001D15498A
:103B200081F839010126012E03D100F06FFB3749DE
:103B3000086030461BE7000067697A436865636B7D
:103B40005265706F7274204572726F72202C20491A
:103B50006C6C6567616C20506172616D0A000000D9
:103B600076616C75654C454431204368616E6765CC
:103B7000640A00000802002076616C75654C4544BB
:103B800032204368616E6765640A000076616C7577
:103B9000654C454433204368616E6765640A0000E4
:103BA00076616C756573746570204368616E6765D6
:103BB000640A000076616C756572656C61792043FA
:103BC00068616E6765640A0076616C75656D6F7417
:103BD0006F72204368616E6765640A0076616C7578
:103BE0006552204368616E6765640A0076616C7592
:103BF0006547204368616E6765640A0076616C758D
:103C00006542204368616E6765640A0074000020A5
:103C100076616C756574656D70204368616E67656B
:103C2000640A000076616C756568756D692043688B
:103C3000616E6765640A00002DE9FE4305460C4687
:103C400016464FF000090027B8460020009001906A
:103C500002902888ADF800000DB104B136B97CA0FF
:103C6000FFF7C8F84FF0FF30BDE8FE830221684639
:103C7000FFF757FEB0F1FF3F05D180A0FFF7BAF87C
:103C80004FF0FF30F0E76846FFF736FD814609F157
:103C9000020080449DF8000000F0010090B1112165
:103CA0002278601C81542078401C20704B46AA1C4E
:103CB0000121384601F082FB08B1012000E000201C
:103CC00030707F1C9DF80000C0F3400090B11221BD
:103CD0002278601C81542078401C20704B46AA1C1E
:103CE0000121384601F06AFB08B1012000E0002004
:103CF00070707F1C9DF80000C0F3800090B113210C
:103D00002278601C81542078401C20704B46AA1CED
:103D10000121384601F052FB08B1012000E00020EB
:103D2000B0707F1C9DF80000C0F3C00090B114215A
:103D30002278601C81542078401C20704B46AA1CBD
:103D40000121384601F03AFB08B1012000E00020D3
:103D5000F0707F1C9DF80000C0F3001090B1152199
:103D60002278601C81542078401C20704B46AA1C8D
:103D70000121384601F022FB08B1012000E00020BB
:103D800030717F1C9DF80000C0F3401078B11621FF
:103D90002278601C81542078401C20704B46AA1C5D
:103DA0000321384601F00AFBC6F80500FF1C9DF808
:103DB0000000C0F38010A0B117212278601C81544C
:103DC0002078401C207015F808108DF8031008F1B9
:103DD00001089DF803200021012001F051FBC6F8E5
:103DE00009009DF800000121B1EBD01F14D118216A
:103DF0002278601C81542078401C207015F808102F
:103E00008DF8041008F101089DF80420002101201C
:103E100001F036FBC6F80D009DF8010000F001002E
:103E2000A0B119212278601C81542078401C207098
:103E300015F808108DF8051008F101089DF8052007
:103E40000021012001F01CFBC6F8110000200BE747
:103E500067697A44617461506F696E743245766542
:103E60006E74204572726F72202C20496C6C6567ED
:103E7000616C20506172616D0A00000067697A42CE
:103E80007974654F7264657245786368616E6765C1
:103E9000204572726F720A002DE9F04786B0054620
:103EA0000F4690464FF000090026002400200190A4
:103EB000029003908148B0F83801ADF80400022167
:103EC00001A8FFF72EFDA41C05B13FB97CA0FEF7A9
:103ED00091FF4FF0FF3006B0BDE8F087774890F8CB
:103EE000380100F0010038B12B7801A80219012136
:103EF000304601F025FA761C704890F83801C0F37E
:103F0000400038B16B7801A802190121304601F058
:103F100017FA761C694890F83801C0F3800038B170
:103F2000AB7801A802190121304601F009FA761C8C
:103F3000624890F83801C0F3C00038B1EB7801A8AE
:103F400002190121304601F0FBF9761C5B4890F81C
:103F50003801C0F3001038B12B7901A802190121F2
:103F6000304601F0EDF9761C544890F83801C0F362
:103F7000401090B1D5F80500062805D35CA0FEF7E7
:103F800039FF4FF0FF30A6E7D5F8053001A8021938
:103F90000321304601F0D4F9F61C16B94FF00009A0
:103FA00008E006F0070010B94FEAD60902E0012048
:103FB00000EBD609B9F1010F04D901A90819494646
:103FC000FFF7AFFC4C443D4890F83801C0F3801037
:103FD00068B1D5F809200021012001F057FAC0B2DC
:103FE0008DF8110001A89DF811100155641C33488B
:103FF00090F83801C00968B1D5F80D2000210120E2
:1040000001F044FAC0B28DF8120001A89DF8121018
:104010000155641C294890F8390100F0010068B18D
:10402000D5F811200021012001F030FAC0B28DF83E
:10403000130001A89DF813100155641C1F4890F847
:104040003901C0F3400090B1D5F815200021344863
:1040500001F023FA1FFA80FA5046FFF7F9FBADF89A
:10406000140001A82044BDF814100180A41C1348BA
:1040700090F83901C0F3800090B1D5F81920294992
:10408000274801F00AFA1FFA80FA5046FFF7E0FBD2
:10409000ADF8160001A82044BDF816100180A41C3C
:1040A00006480021A0F83811C8F8004001A9384698
:1040B000D8F80020FCF782F800200CE70802002066
:1040C00067697A44617461506F696E7473325265C6
:1040D000706F727444617461204572726F72202C2B
:1040E00020496C6C6567616C20506172616D0A00DB
:1040F0005B4552524F525D2076616C75656D6F74F1
:104100006F72204572726F72202C20496C6C65674B
:10411000616C204F766572737465700A0000000050
:10412000CDCCCC3D0000A04070B5054600F06EF847
:104130000446002625492846FFF70CFC012817D124
:1041400023A0FEF757FE214A213AA2F10A01284690
:10415000FFF7A2FE38B9244800F59D71D0F844213C
:10416000142001F069F81D2229461848FCF726F8AA
:104170001E48B4FBF0F100FB114018BB1C4800685E
:10418000A0421FD01BA0FEF735FEFF2202210F48E0
:104190002D38FCF725F80D4A213AA2F10A012846EC
:1041A000FFF77AFE38B9104800F59D71D0F8442128
:1041B000142001F041F81D2229460448FBF7FEFFB8
:1041C0000B4804603046FFF76FFB70BD6D030020A5
:1041D0006368616E6765642C207265706F7274200D
:1041E000646174610A00000008020020C027090011
:1041F00078000020496E666F3A20363030532072C6
:1042000065706F727420646174610A00014800680F
:10421000704700007000002010B5174890F8890022
:10422000012827D1144890F8880002281DDAFFF7EA
:10423000EDFF1149D1F8C810401AC8281AD9FFF764
:10424000E5FF04460C4890F888302146D0F8C82095
:104250000AA0FEF7CFFD00F00DFF074890F8880098
:10426000401C054981F8880004E044210248883058
:10427000FBF7BDFF10BD0000080200205761726E01
:10428000696E673A67697A50726F746F636F6C52C8
:104290006573656E64446174612025642025642023
:1042A00025640A003EB50446002524B913A0FEF794
:1042B000A1FD681E3EBD20680090606801909DF8D9
:1042C0000400401CC0B28DF804000520FFF7C0FABE
:1042D000ADF802000921684600F00AFF8DF80800D9
:1042E0000921684602F020FD0546002D03DA294623
:1042F0000DA0FEF77FFD2846DCE700004552523A4C
:104300002067697A50726F746F636F6C436F6D6D65
:104310006F6E41636B206461746120697320656D09
:10432000707479200A0000004552523A207561727B
:1043300074207772697465206572726F72202564CB
:10434000200A0000FEB504460E46002524B914A03C
:10435000FEF750FD681EFEBD684600F001FA12200F
:104360008DF8040060798DF805000620FFF770FADB
:10437000ADF802008DF808600A21684600F0B8FE2A
:104380008DF809000A21684602F0CEFC0546002D92
:1043900003DA29460DA0FEF72DFD2846DBE70000D5
:1043A00067697A50726F746F636F6C4572726F7267
:1043B000436D64204572726F72202C20496C6C65CD
:1043C00067616C20506172616D0A00004552523A7B
:1043D0002075617274207772697465206572726FDE
:1043E00072202564200A000030B59DB004460025E7
:1043F0002CB92BA0FEF7FEFC681E1DB030BD684630
:1044000000F0AEF902208DF8040060798DF8050007
:104410002FA103C9CDE9020130A103C9CDE90401EF
:1044200031A103C9CDE9080132A103C9CDE90601D3
:10443000202233A10AA8FBF7C1FE202239A10DF1E9
:104440005200FBF7BBFE0020CDF84A00CDF84E002D
:104450009DF851008DF851009DF8510040F0020187
:104460008DF851100020FFF7F3F9ADF848006F20E8
:10447000FFF7EEF9ADF802007321684600F038FE50
:104480008DF872007321684602F04EFC0546002D3F
:1044900003DA29462CA0FEF7ADFC2846ADE7000064
:1044A00067697A50726F746F636F6C4765744465A7
:1044B00076696365496E666F204572726F72202C53
:1044C00020496C6C6567616C20506172616D0A00F7
:1044D0003030303030303034000000003030303098
:1044E0003030303200000000303330333030303084
:1044F0000000000030333031303130300000000037
:10450000646330353863363931646333346432641C
:10451000396431666633303762343533623565610C
:104520000000000066386337323034643966313356
:1045300034626265396132323834333262623962F0
:1045400066306335000000004552523A20756172B2
:1045500074207772697465206572726F72202564A9
:10456000200A00002DE9FE4F80460E4617464FF008
:10457000000B0020029081468246002534460090C0
:10458000B8F1000F01D006B137B955A0FEF732FCE3
:104590004FF0FF30BDE8FE8F404602F0E9FA1FFA07
:1045A00080FABAF1000F02D14FF0FF30F2E74FF07E
:1045B000000969E0012201A9404602F016FB83468A
:1045C000BBF1000F5ED052480078FF281FD19DF844
:1045D0000400FF281BD14F48007848B9FF20207005
:1045E000607002204C49088001204A49087040E070
:1045F0004948008804283CDD47480088A84238D054
:10460000FF202070607002204349088031E040485C
:104610000078FF2803D19DF80400552829D03D4893
:104620000078012825D19DF804003B490988605491
:1046300039480088401C384908800846008804280A
:1046400017DD0094009C6088FFF702F9001D85B219
:104650003C2D01D2042D07DC00202E4908702E4984
:1046600008802EA0FEF7C6FB2B480088A84200D188
:104670000CE09DF804002649087038480078401C7A
:104680003649087009F10109D14593DB00BF224882
:104690000088042822DD20480088A8421ED11E4838
:1046A0000188204600F024FD02901B480088401E2F
:1046B000215C029881420AD13D8000201549087092
:1046C00015490880254908701149087062E70020E3
:1046D0001049087010490880801E5BE7012059E7E7
:1046E00067697A50726F746F636F6C4765744F6E51
:1046F000655061636B6574204572726F72202C2067
:10470000496C6C6567616C20506172616D0A0000D4
:10471000800000207C0000207E0000204552523A9C
:104720007468652064617461206C656E67746820CC
:10473000697320746F6F206C6F6E67206F722074C6
:104740006F6F20736D616C6C2C2077696C6C2061CD
:1047500062616E646F6E200A00000000810000201C
:1047600010B504462CB907A0FEF744FB4FF0FF300C
:1047700010BD002020606060FF202070607000206D
:10478000F6E700004552523A2067697A50726F741A
:104790006F636F6C48656164496E69742068656118
:1047A0006420697320656D707479200A0000000030
:1047B0002DE9F04F9FB006468B46174699460020DC
:1047C0001E908246804600256C46BBF1000F06D144
:1047D00030A0FEF70FFB681E1FB0BDE8F08FB9F1E7
:1047E000010F06D196F8088008F10600384485B21A
:1047F00001E0781D85B22B46424639462BA0FEF7D4
:10480000F9FAFF2004F8010B04F8010B281204F850
:10481000010B04F8015B3079401C04F8010B70793E
:1048200004F8010B002004F8010B04F8019B4FF081
:10483000080AB9F1010F0CD104F8018B0AF1010A41
:104840000DEB0A00424606F10901FBF7B7FCC24432
:1048500044442FB10DEB0A003A465946FBF7AEFC33
:10486000291D684600F044FC0146E81C0DF80010C4
:10487000291D684602F058FA1E901E98002806DA94
:1048800014A01E99FEF7B6FA6FF00100A4E700200D
:10489000A2E700005B4552525D20206461746120F4
:1048A0004973204E756C6C200A0000006C656E2008
:1048B0003D202564202C20734469644C656E203DA6
:1048C000202564202C646174615F6C656E203D203E
:1048D00025640A00756172742077726974652065B9
:1048E00072726F72202564200A0000002DE9F047E3
:1048F00080460C4617461D46089E94F800900CB161
:1049000005B136B93AA0FEF775FA4FF0FF30BDE8B1
:10491000F087B8F1000F68D11B214148FBF767FC15
:10492000B9F1050F40D0B9F1110F03D0B9F1120F51
:1049300059D110E03BA0FEF75DFA394A7C32384984
:10494000601CFFF779F901203549CC390870002542
:104950000020306048E03CA0FEF74CFA3048CC38EC
:10496000B4F80110A0F83811022100F59C70FEF790
:10497000D8FF2B4A7832A2F10A0101F12B00FFF790
:104980008BFA68B92648CC3800F59D71D0F84421DF
:10499000681CFBF713FC132028700B20306002E02A
:1049A0004FF0FF30B3E71FE07A1E611C1C488F38C0
:1049B000FBF704FC781E1A49CC39C8671021184847
:1049C000CC3890F8CC20CD308154CD3890F8CC0044
:1049D000401C1349CC3981F8CC0003200870002515
:1049E0000020306000E000BF00BF00208FE7000023
:1049F00067697A50726F746F636F6C497373756512
:104A00006450726F63657373204572726F72202CED
:104A100020496C6C6567616C20506172616D0A00A1
:104A2000D4020020414354494F4E5F454C4F4E47FE
:104A30004154455F434F4E54524F4C5F4445564995
:104A40004345200A00000000414354494F4E5F4552
:104A50004C4F4E474154455F524541445F44455693
:104A60005F535441545553200A00000070B504466A
:104A700025462CB90EA0FEF7BDF94FF0FF3070BDF2
:104A8000412205F108010E48FBF798FB0F210D4864
:104A900090F81D2100F58F7081540A4890F81D018F
:104AA000401C084981F81D01052008700020E6E738
:104AB0004E545020697320656D707479200A00008F
:104AC000980300200802002010B504462CB9CAA0A3
:104AD000FEF790F94FF0FF3010BD2089FEF7B8FEC9
:104AE0002081D1480078C0F38000217AC1F3800191
:104AF000884256D0207AC0F38000002829D0207A3E
:104B000000F0010078B10021C84890F8E720E830B3
:104B10008154E83890F8E700401CC44981F8E70068
:104B2000C3A0FEF767F9207AC0F34000002838D010
:104B30000121BE4890F8E720E8308154E83890F829
:104B4000E700401CB94981F8E700C1A0FEF752F91F
:104B500027E0207A00F0010078B10021B34890F8F6
:104B6000E720E8308154E83890F8E700401CAF496E
:104B700081F8E700AEA0FEF73DF9207AC0F34000CF
:104B800078B10221A94890F8E720E8308154E8384C
:104B900090F8E700401CA54981F8E700B3A0FEF7B4
:104BA00029F9A1480078C0F3C000217AC1F3C001FF
:104BB00088422CD0207AC1089B48007861F3C3005A
:104BC00099490870207AC0F3C00080B1032197484A
:104BD00090F8E720E8308154E83890F8E700401C6E
:104BE000924981F8E700A8A0FEF704F90FE004213C
:104BF0008E4890F8E720E8308154E83890F8E700D4
:104C0000401C8A4981F8E700A7A0FEF7F3F8864820
:104C10000078C0F30010217AC1F3001188422CD033
:104C2000207A01098048007861F304107E490870F9
:104C3000207AC0F3001080B105217C4890F8E7206D
:104C4000E8308154E83890F8E700401C774981F853
:104C5000E7009DA0FEF7CEF80FE00621734890F81C
:104C6000E720E8308154E83890F8E700401C6F49AD
:104C700081F8E7009CA0FEF7BDF86B480078C0F310
:104C80004010217AC1F3401188422CD0207A41098A
:104C90006548007861F3451063490870207AC0F3D5
:104CA000401080B10721614890F8E720E830815436
:104CB000E83890F8E700401C5C4981F8E70093A0D1
:104CC000FEF798F80FE00821584890F8E720E83000
:104CD0008154E83890F8E700401C544981F8E70017
:104CE00091A0FEF787F850484078C0F3C001607A81
:104CF000C0F3C00081422CD0607AC1084A48407895
:104D000061F3C30048494870607AC0F3C00080B1C5
:104D10000B21464890F8E720E8308154E83890F8B5
:104D2000E700401C414981F8E70087A0FEF762F8E0
:104D30000FE00C213D4890F8E720E8308154E83836
:104D400090F8E700401C394981F8E70085A0FEF79C
:104D500051F835484078C0F30011607AC0F3001074
:104D600081422CD0607A01092F48407861F3041009
:104D70002D494870607AC0F3001080B109212B489A
:104D800090F8E720E8308154E83890F8E700401CBC
:104D9000264981F8E7007BA0FEF72CF80FE00A21F6
:104DA000224890F8E720E8308154E83890F8E7008E
:104DB000401C1E4981F8E70079A0FEF71BF80D2181
:104DC0001A4890F8E720E8308154E83890F8E70076
:104DD000401C164981F8E700607A00F0070081F86E
:104DE0008201084690F8821174A0FEF703F80220B1
:104DF0000E49087000206FE667697A50726F746F11
:104E0000636F6C4D6F64756C65537461747573205A
:104E10004572726F72202C20496C6C6567616C2042
:104E2000506172616D0A00008200002008020020BB
:104E30004F6E426F617264696E673A20536F667499
:104E40004150206F7220576562206D6F64650A00C3
:104E50004F6E426F617264696E673A204169724CAD
:104E6000696E6B206D6F64650A0000004F6E426FC3
:104E7000617264696E673A2053746174696F6E2061
:104E80006D6F64650A00000057694669207374619C
:104E90007475733A20696E2062696E64696E67206A
:104EA0006D6F64650A00000057694669207374617C
:104EB0007475733A206F75742062696E64696E67E9
:104EC000206D6F64650A000057694669207374613C
:104ED0007475733A20636F6E6E65637465642072D7
:104EE0006F757465720A00005769466920737461B2
:104EF0007475733A20646973636F6E6E656374656D
:104F00006420726F757465720A0000005769466903
:104F1000207374617475733A20636F6E6E65637489
:104F20006564206D326D0A005769466920737461AB
:104F30007475733A20646973636F6E6E656374652C
:104F400064206D326D0A00005769466920737461F0
:104F50007475733A2061707020636F6E6E65637450
:104F60000A00000057694669207374617475733ACA
:104F7000206E6F2061707020636F6E6E6563740ABF
:104F80000000000057694669207374617475733AB4
:104F900020696E2074657374206D6F64650A00006B
:104FA00057694669207374617475733A206F75741C
:104FB0002074657374206D6F64650A005253534901
:104FC000206973202564200A0000000070B50446A3
:104FD00025462CB919A0FDF70DFF4FF0FF3070BD2D
:104FE0001B48A9684160A9890181A97B8172A0F54C
:104FF000C070D5F80F10C0F88C110146B1F88401CB
:10500000FEF726FC1349A1F88401D1F88C01FEF7C4
:105010002CFC1049C1F88C010E210E4890F8022199
:1050200000F2031081540B4890F80201401C09491A
:1050300081F80201042008700020D0E74552523A5E
:10504000204E545020697320656D707479200A00D9
:10505000880300200802002010B5FFF7D7F80446A7
:1050600000BFFFF7D3F8001BB0F5167FF9D900F0A9
:10507000E3FF10BD10B500240E4890F8890000B978
:1050800010BD0DA0FDF7B6FE0A48B0F8C6108A3074
:1050900001F04AFE04460748B0F8C600A04202D01C
:1050A0000DA0FDF7A7FEFFF7B1F80249C1F8C8004F
:1050B00000BFE5E7080200205761726E696E673A2B
:1050C0002074696D656F75742C20726573656E64EC
:1050D0002064617461200A004552523A207265735F
:1050E000656E642064617461206572726F720A007B
:1050F00010B502460024002302B109B9002010BDFA
:10510000022303E0D05C2044C4B25B1C481E9842DA
:10511000F8D82046F3E7000070B504460D462CB9D8
:105120000FA0FDF767FE4FF0FF3070BD442112481D
:10513000FBF75DF82A4621460F48801CFBF73EF836
:105140000D488838A0F8C650012180F88910FFF773
:105150005DF809498839C1F8C8000020E5E700007A
:105160004552523A206461746120697320656D7004
:105170007479200A000000009002002070B50446F7
:10518000094D2CB909A0FDF735FE4FF0FF3070BD79
:105190002879401C2179884204D144210248801E8C
:1051A000FBF725F80020F2E7920200204552523A20
:1051B000206461746120697320656D707479200AC0
:1051C0000000000070B504460D46002624B90AA070
:1051D000FDF710FE701E70BD2A4621460E4801F0F4
:1051E00055FD0646AE4205D00CA0FDF703FE4FF07C
:1051F000FF30F0E73046EEE74552523A2067697AD1
:10520000507574446174612062756620697320650D
:105210006D707479200A0000DC0300204552523A78
:10522000204661696C656420746F207262577269F0
:105230007465200A000000002DE9F0438FB0064697
:105240000F4690464FF000096C4608F1060085B203
:105250003FB925A0FDF7CEFD4FF0FF300FB0BDE800
:10526000F083FF2004F8010B04F8010B281204F866
:10527000010B04F8015B052004F8010B244890F8A9
:105280008010D0F88000401C214AC2F8800004F849
:10529000011B002004F8010B04F8010B04F8016B5A
:1052A000424639460DF10900FAF788FF291D684684
:1052B000FFF71EFF0146E81C0DF80010291D684687
:1052C00001F032FD8146B9F1000F06DA494611A01E
:1052D000FDF790FD6FF00100C0E7291D6846FFF75C
:1052E0001BFF0020BAE7000067697A5265706F7291
:1052F0007444617461204572726F72202C20496C75
:105300006C6567616C20506172616D0A000000007D
:10531000080200204552523A20756172742077725B
:10532000697465206572726F72202564200A00001E
:1053300002480068401C0149086070477000002066
:105340002DE9F0470546884614461E464FF00009F1
:10535000CA460027002314B9581EBDE8F087EB08A1
:1053600041462846FEF7C8FA07463FB9E05C05F01B
:10537000070106FA01F10843E0541DE0012F1BD19B
:10538000F0B205F00701C1F1080140FA01F905F09A
:105390000700C0F10801FF20084100EA060A581C76
:1053A000205C40EA0900591C6054E05C05F00701EC
:1053B0000AFA01F10843E0540020CEE72DE9F04F4E
:1053C0008FB004460F4690461D460026B246B146B1
:1053D000B34600200E90B8F1000F00D025B94FF071
:1053E000FF300FB0BDE8F08F4FEAD4092A4641469E
:1053F00001A8FAF7E3FE012D09D9294601A8FEF715
:1054000090FAB0F1FF3F02D14FF0FF30E9E73946A3
:105410002046FEF771FA8246BAF1000F0CD101A8BE
:1054200010F8090004F007010841C7F10802FF2144
:1054300011410840064321E0BAF1010F1ED101A934
:1054400009F10100085C04F00701C1F10801791AB3
:10545000C1F10802FF21114100EA010B01A810F877
:10546000090004F0070108410E9004F00700C0F1A4
:1054700008010BFA01F006430E9806433046B0E7E8
:1054800010B50346002002FB031010BD10B5034603
:105490000020541AB4FBF3F010BD2DE9F047044688
:1054A0000E461546002731462846FAF7FDFE81468E
:1054B0002146FAF7FFFE8046FAF73FFF07463846D7
:1054C000BDE8F0872DE9F04F89B007460E469346B8
:1054D0004FF000083446B1463546B24607B126B90A
:1054E0004FF0FF3009B0BDE8F08F4FF000086EE1DB
:1054F000781C10F808001A2878D2DFE800F0F6F5DA
:10550000F47777F3F2F1F077777777EFEEEDEC0D54
:105510001F31436B7DD8F7EA2078B0490870084600
:105520000078012804D1C102AD48FBF79BFB04E0E1
:105530004FF40061AA48FBF793FB43E16078A74969
:10554000487008464078012804D18103A448FBF73D
:1055500089FB04E04FF48041A148FBF781FB31E176
:10556000A0789E49887008468078012804D1C1023D
:105570009C48FBF777FB04E04FF400619948FBF788
:105580006FFB1FE1E0789549C8700846C078012894
:105590000FD19549087095480078062803D101205D
:1055A0009349087015E0322201210846FCF756F8AD
:1055B0000FE000208C4908708C480078062803D141
:1055C00001208B49087004E0322202210120FCF7FF
:1055D00045F8F7E0207981490871084600790128EB
:1055E00005D102217E48FBF73DFB04E0E9E0022102
:1055F0007B48FBF735FBE5E0D4F805007749C1F8B7
:1056000005000846D0F8050006284AD2DFE800F079
:10561000030E1925313D0020764908707348007843
:10562000042802D00020FBF701FC3BE00120714977
:1056300008706E480078042802D0C820FBF7F6FBFB
:1056400030E002206B49087068480078042803D0D5
:105650004FF4C870FBF7EAFB24E0032065490870AB
:1056600062480078042803D04FF41670FBF7DEFB85
:1056700018E004205F4908705C480078042803D0D3
:105680004FF44870FBF7D2FB0CE005205949087035
:1056900056480078042803D04FF47A70FBF7C6FB15
:1056A00000E000BF00BF0020534908708AE0D4F832
:1056B00009004A49C1F809000120504908714748CA
:1056C000407A0870454B5A7C597B587AFBF73AFE72
:1056D00078E01DE00AE040E067E042E037E035E0D6
:1056E00030E02EE029E027E025E023E0D4F80D00AB
:1056F0003A49C1F80D000120404908713748407B04
:105700004870364B5A7C597B587AFBF71BFE59E0A0
:10571000D4F811003149C1F811000120374908714E
:105720002E48407C88702D4B5A7C597B587AFBF769
:1057300009FE47E046E045E044E0012030490870BA
:1057400040E03FE001202E4908703BE03AE099F844
:1057500000102CA0FDF74EFB34E02DA0FDF74AFB16
:1057600030E02248007801281ED1202101A8FAF754
:105770003EFDE8780090AB782A882AA101A8FDF7C1
:1057800049FB01AA02213020FBF70AFCA87900900E
:105790006B792A7927A101A8FDF73CFB01AA042116
:1057A0003020FBF7FDFB00BF0CE026A0FDF722FB3D
:1057B00029A0FDF71FFB9AF800102BA0FDF71AFB9C
:1057C00000E000BF00BF08F1010000F0FF083878DA
:1057D00040453FF78DAE002084E60000EA0100203E
:1057E000000C01400008014039000020300000207A
:1057F0003A00002033000020310000203400002057
:105800006C000020525353492025640A0000000018
:105810005452414E53504152454E545F44415441BD
:10582000200A0000253032642D253032642D2530C9
:1058300032640000253032643A253032643A253033
:10584000326400004D4F44554C4520494E464F2090
:105850002E2E2E0A00000000574946204D4F445579
:105860004C45202E2E2E0A006D6F64756C655479A0
:105870007065203A205B25645D200A003EB5002457
:105880006846FEF76DFF17208DF80400134890F866
:105890008010D0F88000401C104AC2F88000C8B2C6
:1058A0008DF805000520FDF7D3FFADF802000921B2
:1058B0006846FFF71DFC8DF808000921684601F0D5
:1058C00033FA0446002C03DA214605A0FDF792FACC
:1058D00009216846FFF720FC3EBD000008020020B9
:1058E0004552525B4E54505D3A2075617274207778
:1058F00072697465206572726F72202564200A00D7
:105900002DE9F041A2B00546002600200390029048
:1059100000248046002735B982A0FDF76BFA601E8F
:1059200022B0BDE8F081FEF777FC03AA87498848DA
:10593000FEF718FE0646002E71D186A0FDF75AFA32
:10594000824C20790F284FD00ADC0E2873D2DFE872
:1059500000F07216721A7272433872724472453CC9
:10596000182852D006DC112847D0142846D0162813
:1059700061D134E0222854D02A285CD130E020467E
:10598000FEF732FD5FE0E279A17977A0FDF732FA08
:1059900002A8009007F10900BDF80C301A1A6B48F4
:1059A0000830C11904AB4046FEF7A0FF40B9E379C7
:1059B00004A92046029AFEF7FBFE6FA0FDF71AFA33
:1059C00041E02046FEF76EFC3DE02046FEF76AFC13
:1059D0002046FFF779F836E000BF00BF00BF00BFE8
:1059E0002046FFF7CBFB2EE02046FEF75BFC65A0D0
:1059F000FDF700FAFFF730FB25E024E02046FFF733
:105A0000BDFB65A0FDF7F6F91DE02046FFF7B6FBEC
:105A10002046FFF7DBFA68A0FDF7ECF913E013E08E
:105A200009E02046FFF7AAFB2046FFF71FF868A011
:105A3000FDF7E0F907E002212046FEF783FC6BA0AA
:105A4000FDF7D8F900BF0DE016F1020F0AD13F4C67
:105A500001212046FEF776FC6AA0FDF7CBF96FF036
:105A600001005DE73948401E0078062852D2DFE881
:105A700000F051031425304000203449491E0870BD
:105A80001D2201F5A471A1F17C00FFF71BFD1B2174
:105A90002E48CB30FAF7ABFB3DE000202B49491EE6
:105AA0000870012201F5C171A1F19B00FFF70AFD09
:105AB0001B212648E630FAF79AFB2CE00020234908
:105AC000491E087008463D31C26FCC30FFF7FAFC22
:105AD00021E000201D49491E08700C2201F5C27109
